:020000040800F2
:1000000000500020C103000819040008190400086A
:100010001904000819040008190400080000000071
:1000200000000000000000000000000019040008AB
:100030001904000800000000190400084510000819
:10004000190400081904000819040008190400081C
:10005000190400081904000819040008190400080C
:1000600019040008190400081904000819040008FC
:1000700019040008190400081904000819040008EC
:100080001904000819040008591700081904000889
:1000900019040008190400081904000819040008CC
:1000A0001904000819040008190400086D18000854
:1000B00019040008190400081904000819040008AC
:1000C000190400081904000819040008190400089C
:1000D000190400081904000819040008550F000845
:1000E00019040008190400081904000800000000A1
:1000F0000000000000000000000000000000000000
:0C01000000000000000000005FF808F1A3
:10010C0010B5054C237833B9044810B10448AFF34B
:10011C0000800121217010BD14000020000000009F
:10012C00502A000808B5064B1BB106480649AFF328
:10013C0000800648016811B1054A02B1904708BD1C
:10014C0000000000502A00081800002014000020B5
:10015C000000000080B500AF4FF48053C4F20203DE
:10016C004FF48052C4F20202126842F001021A608B
:10017C004FF48052C4F202024FF48053C4F20203D3
:10018C0059684FF00003CFF6FF030B4053604FF458
:10019C008053C4F202034FF48052C4F2020212687C
:1001AC0022F0847222F480321A604FF48053C4F22D
:1001BC0002034FF48052C4F20202126822F480222D
:1001CC001A604FF48053C4F202034FF48052C4F20D
:1001DC000202526822F4FE025A604FF48053C4F2B9
:1001EC0002034FF41F029A6000F008F84FF46D43BD
:1001FC00CEF200034FF000629A6080BD80B500AF74
:10020C0000F002F880BD00BF80B483B000AF4FF0A7
:10021C0000037B604FF000033B604FF48053C4F24B
:10022C0002034FF48052C4F20202126842F480328C
:10023C001A604FF48053C4F202031B6803F40033BA
:10024C003B607B6803F101037B603B68002B03D1AF
:10025C007B68B3F5A06FECD14FF48053C4F202036A
:10026C001B6803F40033002B03D04FF001033B60F9
:10027C0002E04FF000033B603B68012B40F09480A0
:10028C004FF40053C4F202034FF40052C4F20202C2
:10029C00126842F010021A604FF40053C4F20203C9
:1002AC004FF40052C4F20202126822F003021A60E8
:1002BC004FF40053C4F202034FF40052C4F2020292
:1002CC00126842F002021A604FF48053C4F2020327
:1002DC004FF48052C4F2020252685A604FF48053B9
:1002EC00C4F202034FF48052C4F2020252685A6004
:1002FC004FF48053C4F202034FF48052C4F2020252
:10030C00526842F480625A604FF48053C4F2020384
:10031C004FF48052C4F20202526822F47C125A60EA
:10032C004FF48053C4F202034FF48052C4F2020221
:10033C00526842F4E8125A604FF48053C4F202033C
:10034C004FF48052C4F20202126842F080721A60BA
:10035C0000BF4FF48053C4F202031B6803F0007318
:10036C00002BF6D04FF48053C4F202034FF48052AA
:10037C00C4F20202526822F003025A604FF4805316
:10038C00C4F202034FF48052C4F20202526842F0EB
:10039C0002025A6000BF4FF48053C4F202035B6840
:1003AC0003F00C03082BF6D107F10C07BD4680BCFB
:1003BC00704700BFDFF83CD0002100F004B80E4BB2
:1003CC005B58435004310D480D4B42189A42FFF4D0
:1003DC00F6AF0C4A00F003B8002342F8043B0A4B7A
:1003EC009A42FFF4F9AFFFF7B5FE02F005FB00F0FF
:1003FC00F1FB704700500020702A0008000000201C
:10040C00140000201400002040000020FFF7FEBF65
:10041C0080B483B000AF03463960FB7197F90730A5
:10042C00002B10DA4FF46D43CEF20003FA7902F090
:10043C000F02A2F104013A68D2B24FEA0212D2B210
:10044C005B181A760DE04FF46143CEF2000397F976
:10045C0007103A68D2B24FEA0212D2B25B1883F894
:10046C00002307F10C07BD4680BC704780B582B0F5
:10047C0000AF78607A686FF07F439A4202D94FF0F0
:10048C0001031FE04EF21003CEF200037A6822F053
:10049C007F4202F1FF325A604FF0FF304FF00F01F4
:1004AC00FFF7B6FF4EF21003CEF200034FF000023E
:1004BC009A604EF21003CEF200034FF007021A605E
:1004CC004FF00003184607F10807BD4680BD00BF7A
:1004DC0080B588B000AF4FF01803FB774FF00303E3
:1004EC00BB774FF04003BB8307F11C034FF48050E4
:1004FC00C4F20100194602F04DF84FF40073BB83AF
:10050C0007F11C034FF48050C4F20100194602F0AD
:10051C0041F84FF40073BB8307F11C034FF44060A8
:10052C00C4F20100194602F035F84FF44060C0F2F5
:10053C001A004FF0010102F021F94FF013033B8236
:10054C004FF000037B8240F2E733BB824FF0000395
:10055C00FB824FF000033B7607F110034FF48060F1
:10056C00C4F20000194601F07BFB07F110034FF4B5
:10057C000060C4F20000194601F072FB4FF4806079
:10058C00C4F200004FF0010101F0FCFC4FF40060DC
:10059C00C4F200004FF0010101F0F4FC3B464FF0B7
:1005AC0000021A6003F104034FF000021A6003F119
:1005BC0004034FF000021A6003F104034FF0000231
:1005CC001A6003F104034FF060033B804FF06403A7
:1005DC00FB804FF001037B804FF000033B813B46D7
:1005EC004FF48060C4F20000194601F0C7FB4FF4D1
:1005FC008060C4F200004FF0080101F007FD3B469B
:10060C004FF48060C4F20000194601F04BFC4FF42B
:10061C008060C4F200004FF0080101F013FD3B466E
:10062C004FF40060C4F20000194601F03BFC4FF49B
:10063C000060C4F200004FF0080101F003FD07F167
:10064C002007BD4680BD00BF80B582B000AF4FF41F
:10065C008070C0F230004FF0010102F08FF84FF0C3
:10066C001003FB714FF00203BB714FF48063BB802E
:10067C0007F104034FF48050C4F20100194601F055
:10068C0089FF4FF08003BB8007F104034FF48050C7
:10069C00C4F20100194601F07DFF4FF48073BB805A
:1006AC0007F104034FF48050C4F20100194601F025
:1006BC0071FF4FF02003BB8007F104034FF480500F
:1006CC00C4F20100194601F065FF4FF48073BB8042
:1006DC0007F104034FF44060C4F20100194601F025
:1006EC0059FF4FF00203BB8007F104034FF4406045
:1006FC00C4F20100194601F04DFF4FF40053BB80CA
:10070C0007F104034FF48050C4F20100194601F0C4
:10071C0041FF4FF00403BB8007F104034FF440602A
:10072C00C4F20100194601F035FF4FF48063BB8021
:10073C0007F104034FF40060C4F20100194601F004
:10074C0029FF07F10807BD4680BD00BF80B582B008
:10075C0000AF13460246FA710A46BA80BB71BB88D9
:10076C00C3F57F7303F10303BB80BB88632B03D8F2
:10077C004FF06403BB8006E0BB88B3F5487F02D919
:10078C0040F2FF33BB80FB79012B3ED1BB79012BAF
:10079C0010D14FF48050C4F201004FF4806101F08D
:1007AC00D1FF4FF48050C4F201004FF0800101F0F2
:1007BC00D7FF23E0BB79022B10D14FF48050C4F249
:1007CC0001004FF4806101F0CBFF4FF48050C4F274
:1007DC0001004FF0800101F0B5FF0FE04FF48050A5
:1007EC00C4F201004FF4806101F0BAFF4FF4805065
:1007FC00C4F201004FF0800101F0B2FF4FF48063AE
:10080C00C4F20003BA889A8684E0FB79022B3FD1AC
:10081C00BB79012B10D14FF48050C4F201004FF47E
:10082C00807101F08FFF4FF48050C4F201004FF043
:10083C00200101F095FF23E0BB79022B10D14FF47E
:10084C008050C4F201004FF4807101F089FF4FF425
:10085C008050C4F201004FF0200101F073FF0FE053
:10086C004FF48050C4F201004FF4807101F078FF16
:10087C004FF48050C4F201004FF0200101F070FFE2
:10088C004FF48063C4F20003BA88A3F8402041E01F
:10089C00FB79032B3ED1BB79012B10D14FF4406077
:1008AC00C4F201004FF4807101F04CFF4FF4406032
:1008BC00C4F201004FF0020101F052FF23E0BB79BA
:1008CC00022B10D14FF44060C4F201004FF4807140
:1008DC0001F046FF4FF44060C4F201004FF00201FA
:1008EC0001F030FF0FE04FF44060C4F201004FF410
:1008FC00807101F035FF4FF44060C4F201004FF0FD
:10090C00020101F02DFF4FF40063C4F20003BA881A
:10091C00A3F84020BA8840F2FF339A4206D1FB7903
:10092C0018464FF0030100F00BF805E0FA79BB799B
:10093C001046194600F004F807F10807BD4680BDC3
:10094C0080B582B000AF786039607B68022B52D0E2
:10095C00032B00F09D80012B40F0E7803B68012BBE
:10096C0010D14FF40060C4F201004FF4006101F0AB
:10097C00E9FE4FF40060C4F201004FF4805101F025
:10098C00EFFED3E03B68022B10D14FF40060C4F2B1
:10099C0001004FF4006101F0E3FE4FF40060C4F27B
:1009AC0001004FF4805101F0CDFEBFE03B68032BFA
:1009BC0010D14FF40060C4F201004FF4006101F05B
:1009CC00C1FE4FF40060C4F201004FF4805101F0FD
:1009DC00B9FEABE04FF40060C4F201004FF40061CB
:1009EC0001F0BEFE4FF40060C4F201004FF48051E0
:1009FC0001F0B6FE9AE03B68012B10D14FF4006079
:100A0C00C4F201004FF0080101F09CFE4FF40060AD
:100A1C00C4F201004FF0040101F0A2FE86E03B6835
:100A2C00022B10D14FF40060C4F201004FF008010A
:100A3C0001F096FE4FF40060C4F201004FF0040187
:100A4C0001F080FE72E03B68032B10D14FF4006084
:100A5C00C4F201004FF0080101F074FE4FF4006085
:100A6C00C4F201004FF0040101F06CFE5EE04FF4A3
:100A7C000060C4F201004FF0080101F071FE4FF468
:100A8C000060C4F201004FF0040101F069FE4DE07A
:100A9C003B68012B10D14FF40060C4F201004FF001
:100AAC00100101F04FFE4FF40060C4F201004FF052
:100ABC00200101F055FE39E03B68022B10D14FF4B8
:100ACC000060C4F201004FF0100101F049FE4FF438
:100ADC000060C4F201004FF0200101F033FE25E06C
:100AEC003B68032B10D14FF40060C4F201004FF0AF
:100AFC00100101F027FE4FF40060C4F201004FF02A
:100B0C00200101F01FFE11E04FF40060C4F201005F
:100B1C004FF0100101F024FE4FF40060C4F201000C
:100B2C004FF0200101F01CFE00E000BF07F10807A8
:100B3C00BD4680BD80B584B000AFF860B9607A6006
:100B4C007B68012B10D14FF44060C4F201004FF0D0
:100B5C00040101F005FE4FF40060C4F201004FF4F3
:100B6C00806101F0FDFD1BE07B68022B10D14FF47E
:100B7C000060C4F201004FF4806101F0F1FD4FF40C
:100B8C004060C4F201004FF0040101F0DBFD07E00E
:100B9C004FF40060C4F201004FF4806101F0D2FD0B
:100BAC00FB684FEA8323C3F5A22303F58863184639
:100BBC00FFF75CFCBA6840F23003C2F200039A60A3
:100BCC0007F11007BD4680BD80B400AFBD4680BCA8
:100BDC00704700BF80B500AFFFF7BCFA00F046F8D5
:100BEC0000F0F2FC00F09AFA00F018FAFFF770FC33
:100BFC00FFF72AFD00F07CF800F026FD00F0F6FD72
:100C0C0000F04EFA00F0ACFC4FF001004FF0000188
:100C1C004FF00302FFF79AFD4FF002004FF0000176
:100C2C004FF00302FFF792FD4FF003004FF000016D
:100C3C004FF00302FFF78AFDFEE700BF80B485B0DA
:100C4C0000AF78604FF00003FB6003E0FB6803F13A
:100C5C000103FB607B684FEA0332FB689A42F5D8CC
:100C6C0007F11407BD4680BC704700BF80B500AFCC
:100C7C004FF0010001F05AFA4FF000004FF48011D0
:100C8C0001F064FA4FF0020001F094FA4FF0010009
:100C9C0001F080FA4FF0070001F06CFC4FF00000FF
:100CAC0001F0A8FA4FF0000001F0C4FA4FF0000078
:100CBC0001F0E0FA80BD00BF80B483B000AF034602
:100CCC00FB714FF46143CEF2000397F907204FEA12
:100CDC005212F97901F01F014FF0010000FA01F1F5
:100CEC0043F8221007F10C07BD4680BC704700BFCB
:100CFC0080B586B000AF4FF00303BB754FF40063B3
:100D0C00BB824FF00403FB7507F114034FF44060F2
:100D1C00C4F20100194601F03DFC4FF48063BB8224
:100D2C004FF01803FB7507F114034FF44060C4F245
:100D3C000100194601F02EFC4FF416537B604FF066
:100D4C0000033B824FF00C03FB814FF00003BB818F
:100D5C004FF000037B814FF000033B814FF4904038
:100D6C00C4F200004FF0010100F0A6FE07F10403ED
:100D7C004FF49040C4F20000194600F0C7FD4FF448
:100D8C009040C4F2000040F225514FF0010200F0F7
:100D9C00B3FE4FF02700FFF78FFF07F11807BD4692
:100DAC0080BD00BF80B584B000AF7860786840F239
:100DBC00255100F0F3FE0346002B00F0888040F232
:100DCC003003C2F200034FF001021A707B689B895A
:100DDC009BB223F020039AB27B689A817B689B8834
:100DEC009BB2FB73FB7BFF2B68D100BF7B681B881E
:100DFC009BB203F02003002BF8D07B689B889BB23E
:100E0C00FB73FB7B4FEA1313BB73FB7B03F00C03ED
:100E1C004FEAA3037B73FB7B03F003033B7300BF1D
:100E2C007B681B889BB203F02003002BF8D07B68F7
:100E3C009B889BB2FB73BB7B012B05D0BB7B022B2E
:100E4C0002D0BB7B032B10D13B7B9BB24FEA03231D
:100E5C009AB2FB7B9BB2D3189AB2B97B7B7B0846C8
:100E6C0011461A46FFF772FC1FE0BB7B042B1CD10A
:100E7C003B7B9BB24FEA03239AB2FB7B9BB2D3180A
:100E8C007B8100BF7B681B889BB203F02003002B87
:100E9C00F8D07B689B889BB2FB73F97B7A897B7B50
:100EAC00084611461A46FFF745FE7B689B899BB2A4
:100EBC0043F020039AB27B689A8140E07B689B895F
:100ECC009BB243F020039AB27B689A8137E0786832
:100EDC0040F2277100F062FE0346002B2FD07B6896
:100EEC009B899BB223F080039AB27B689A8140F273
:100EFC003003C2F20003DB689AB27B689A8000BFB1
:100F0C007B681B889BB203F08003002BF8D07B68B6
:100F1C004FF062029A8000BF7B681B889BB203F083
:100F2C008003002BF8D07B684FF063029A807B68BB
:100F3C009B899BB243F020039AB27B689A8107F19C
:100F4C001007BD4680BD00BF80B500AF4FF4904088
:100F5C00C4F20000FFF726FF80BD00BF80B483B051
:100F6C0000AF03463960FB7197F90730002B10DA9C
:100F7C004FF46D43CEF20003FA7902F00F02A2F1A6
:100F8C0004013A68D2B24FEA0212D2B25B181A7656
:100F9C000DE04FF46143CEF2000397F907103A6865
:100FAC00D2B24FEA0212D2B25B1883F8002307F1D7
:100FBC000C07BD4680BC704780B582B000AF78602E
:100FCC007A686FF07F439A4202D94FF001031FE019
:100FDC004EF21003CEF200037A6822F07F4202F147
:100FEC00FF325A604FF0FF304FF00F01FFF7B6FFA2
:100FFC004EF21003CEF200034FF000029A604EF254
:10100C001003CEF200034FF007021A604FF00003FA
:10101C00184607F10807BD4680BD00BF80B500AF7C
:10102C0048F2A060C0F20100FFF7C6FF6FF00400A9
:10103C0001F0BCFC80BD00BF80B500AF40F23003B6
:10104C00C2F200039B68002B17D04FF48053C4F2FC
:10105C0001034FF48052C4F20102D26882F40052B0
:10106C00DA6040F23003C2F200039B6803F1FF32F6
:10107C0040F23003C2F200039A6040F23003C2F235
:10108C0000031B78DBB2002B01D1FFF79DFD40F272
:10109C003003C2F200034FF000021A7080BD00BF93
:1010AC0080B584B000AF4FF4E06001F0F7FB4FF077
:1010BC0027033B734FF000037B734FF00103BB73AB
:1010CC004FF00103FB7307F10C03184601F0FAFB18
:1010DC004FF012033B724FF000037B724FF0020390
:1010EC00BB724FF00103FB7207F10803184601F0C5
:1010FC00E9FB4FF01B033B714FF00103FB714FF009
:10110C0000037B714FF00303BB7107F10403184616
:10111C0001F0D8FB07F11007BD4680BD80B582B049
:10112C0000AF4FF01003FB714FF00203BB7141F69F
:10113C00FC43BB8007F104034FF40060C4F20100D0
:10114C00194601F027FA4FF02403BB8007F1040382
:10115C004FF44060C4F20100194601F01BFA4FF441
:10116C000053BB8007F104034FF48050C4F201001C
:10117C00194601F00FFA00F055F84FF40060C4F274
:10118C0001004FF4806101F0DDFA4FF44060C4F2CD
:10119C0001004FF0240101F0D5FA4FF48050C4F255
:1011AC0001004FF4005101F0CDFA4FF47A70FFF7C3
:1011BC0045FD4FF40060C4F201004FF4806101F072
:1011CC00CFFA4FF44060C4F201004FF0240101F05B
:1011DC00C7FA4FF48050C4F201004FF4005101F0F3
:1011EC00BFFA4FF47A70FFF729FD4FF40060C4F298
:1011FC0001004FF4806101F0A5FA4FF44060C4F295
:10120C0001004FF0240101F09DFA4FF48050C4F21C
:10121C0001004FF4005101F095FA07F10807BD46A3
:10122C0080BD00BF80B582B000AF4FF096037B60ED
:10123C004FF40060C4F201004FF4006101F082FA37
:10124C004FF40060C4F201004FF4805101F07AFABF
:10125C004FF40060C4F201004FF0080101F072FA83
:10126C004FF40060C4F201004FF0040101F06AFA7F
:10127C004FF40060C4F201004FF0100101F062FA6B
:10128C004FF40060C4F201004FF0200101F05AFA53
:10129C007B681846FFF7D2FC00F062F97B681846B1
:1012AC00FFF7CCFC4FF40060C4F201004FF4006176
:1012BC0001F048FA4FF40060C4F201004FF4805181
:1012CC0001F040FA4FF40060C4F201004FF0080145
:1012DC0001F038FA4FF40060C4F201004FF0040141
:1012EC0001F030FA4FF40060C4F201004FF010012D
:1012FC0001F028FA4FF40060C4F201004FF0200115
:10130C0001F020FA7B681846FFF798FC00F028F9EA
:10131C007B681846FFF792FC4FF40060C4F20100A2
:10132C004FF4006101F00EFA7B681846FFF786FC5B
:10133C004FF40060C4F201004FF4805101F002FA46
:10134C007B681846FFF77AFC4FF40060C4F201008A
:10135C004FF0080101F0F6F97B681846FFF76EFCB8
:10136C004FF40060C4F201004FF0040101F0EAF9FF
:10137C007B681846FFF762FC4FF40060C4F2010072
:10138C004FF0100101F0DEF97B681846FFF756FCB0
:10139C004FF40060C4F201004FF0200101F0D2F9CB
:1013AC007B681846FFF74AFC4FF40060C4F201005A
:1013BC004FF4006101F0D4F97B681846FFF73EFC4E
:1013CC004FF40060C4F201004FF4805101F0C8F9F1
:1013DC007B681846FFF732FC4FF40060C4F2010042
:1013EC004FF0080101F0BCF97B681846FFF726FCAA
:1013FC004FF40060C4F201004FF0040101F0B0F9A9
:10140C007B681846FFF71AFC4FF40060C4F2010029
:10141C004FF0100101F0A4F97B681846FFF70EFCA1
:10142C004FF40060C4F201004FF0200101F098F974
:10143C007B681846FFF702FC4FF40060C4F2010011
:10144C004FF4006101F07EF97B681846FFF7F6FB5C
:10145C004FF40060C4F201004FF4805101F072F9B6
:10146C007B681846FFF7EAFB4FF40060C4F20100FA
:10147C004FF0080101F066F97B681846FFF7DEFBB8
:10148C004FF40060C4F201004FF0040101F05AF96E
:10149C007B681846FFF7D2FB4FF40060C4F20100E2
:1014AC004FF0100101F04EF97B681846FFF7C6FBB0
:1014BC004FF40060C4F201004FF0200101F042F93A
:1014CC007B681846FFF7BAFB4FF40060C4F20100CA
:1014DC004FF4006101F044F97B681846FFF7AEFB4E
:1014EC004FF40060C4F201004FF4805101F038F960
:1014FC007B681846FFF7A2FB4FF40060C4F20100B2
:10150C004FF0080101F02CF97B681846FFF796FBA9
:10151C004FF40060C4F201004FF0040101F020F917
:10152C007B681846FFF78AFB4FF40060C4F2010099
:10153C004FF0100101F014F97B681846FFF77EFBA1
:10154C004FF40060C4F201004FF0200101F008F9E3
:10155C007B681846FFF772FB07F10807BD4680BD94
:10156C0080B500AF4FF40060C4F201004FF400618D
:10157C0001F0F6F84FF40060C4F201004FF4805112
:10158C0001F0EEF84FF40060C4F201004FF00801D6
:10159C0001F0E6F84FF40060C4F201004FF00401D2
:1015AC0001F0DEF84FF40060C4F201004FF01001BE
:1015BC0001F0D6F84FF40060C4F201004FF02001A6
:1015CC0001F0CEF880BD00BF80B500AF4FF0040035
:1015DC004FF0010100F07AFF4FF008004FF00101CD
:1015EC0000F074FF4FF010004FF0010100F06EFF9F
:1015FC004FF020004FF0010100F068FF4FF00100A8
:10160C004FF0010100F062FF4FF480204FF0010118
:10161C0000F086FF4FF400604FF0010100F056FF20
:10162C004FF002004FF0010100F07AFF4FF0040080
:10163C004FF0010100F074FF4FF400704FF0010106
:10164C0000F044FF80BD00BF80B582B000AF4FF00A
:10165C000103BB804FF00203BB714FF00003FB7121
:10166C0007F104034FF48050C4F20100194600F056
:10167C0091FF4FF4404000F01FFE4FF41053C4F2A2
:10168C0001034FF003029A604FF41053C4F20103AC
:10169C004FF00002DA624FF41053C4F201034FF022
:1016AC000A025A634FF41053C4F201034FF4105260
:1016BC00C4F20102D26842F00702DA604FF4105310
:1016CC00C4F201034FF41052C4F20102526842F00A
:1016DC0020025A604FF41053C4F201034FF410521D
:1016EC00C4F20102926842F008029A6000BF4FF403
:1016FC001053C4F201039B6803F00803002BF6D1CE
:10170C004FF41053C4F201034FF41052C4F201020F
:10171C00926842F004029A6000BF4FF41053C4F276
:10172C0001039B6803F00403002BF6D14FF4105314
:10173C00C4F201034FF41052C4F20102926842F059
:10174C0001029A6007F10807BD4680BD80B400AF66
:10175C004FF41053C4F201031B6803F00203002B77
:10176C0041D040F23003C2F200035A684FF41053D8
:10177C00C4F20103DB6C4FEA1313D21840F23003AE
:10178C00C2F200035A6040F23003C2F200035B78ED
:10179C00DBB203F10103DAB240F23003C2F2000310
:1017AC005A7040F23003C2F200035B78DBB2FF2BBD
:1017BC0019D140F23003C2F200034FF000025A700C
:1017CC0040F23003C2F200035B684FEA132240F28E
:1017DC003003C2F20003DA6040F23003C2F20003BD
:1017EC004FF000025A60BD4680BC704780B584B093
:1017FC0000AF48F69F43BB804FF00003FB8040F2E4
:10180C00CF733B814FF000037B814FF000033B73A0
:10181C0007F104034FF43050C4F20100194600F0F4
:10182C001FFA4FF43050C4F201004FF0010100F0E8
:10183C0029FC4FF43050C4F201004FF002014FF07C
:10184C00010200F0BFFB4FF43050C4F201004FF026
:10185C00010100F097FB07F11007BD4680BD00BFEA
:10186C0080B500AF4FF43050C4F201004FF00201CC
:10187C0000F01AFC0346002B46D04FF43050C4F253
:10188C0001004FF0020100F03FFC40F23003C2F2C5
:10189C000003DB68D82B1CD94FF40060C4F20100A4
:1018AC004FF0400100F05CFF4FF43053C4F20103E1
:1018BC0040F23002C2F20002D26892B2A2F1D80217
:1018CC0092B24FEAC21292B202F1630292B29A85BC
:1018DC000EE04FF43053C4F201034FF063029A85CB
:1018EC004FF40060C4F201004FF0400100F02AFFF9
:1018FC004FF40063C4F201034FF40062C4F201021E
:10190C00D26882F08002DA6080BD00BF80B58CB0F6
:10191C0000AF786039604FF00003FB624FF00003BA
:10192C00BB624FF000037B624FF000033B624FF051
:10193C000003FB617B68FB617B681B8A9BB2FB62CB
:10194C00FA6A4CF6FF731340FB623B68DB88FA6A59
:10195C001343FB62FB6A9AB27B681A827B689B8991
:10196C009BB2FB62FA6A4EF6F3131340FB623B68C0
:10197C009A883B681B8913439AB23B685B89134373
:10198C009BB2FA6A1343FB62FB6A9AB27B689A8138
:10199C007B689B8A9BB2FB62FA6A4FF6FF4313404B
:1019AC00FB623B689B89FA6A1343FB62FB6A9AB23F
:1019BC007B689A8207F10803184600F09DFCFA69CF
:1019CC004FF46053C4F201039A4202D17B69BB62AB
:1019DC0001E03B69BB627B689B899BB29BB21BB2EB
:1019EC00002B0FDABA6A13464FEA83039B184FEAAF
:1019FC0083029A183B681B684FEA4303B2FBF3F36C
:101A0C007B620EE0BA6A13464FEA83039B184FEAD7
:101A1C0083029A183B681B684FEA8303B2FBF3F30B
:101A2C007B627A6A48F21F53C5F2EB13A3FB0213D5
:101A3C004FEA53134FEA0313FB62FB6A4FEA13138B
:101A4C004FF0640202FB03F37A6AD31A3B627B68A1
:101A5C009B899BB29BB21BB2002B12DA3B6A4FEAFA
:101A6C00C30303F1320248F21F53C5F2EB13A3FB7D
:101A7C0002134FEA531303F00703FA6A1343FB6292
:101A8C0011E03B6A4FEA031303F1320248F21F5391
:101A9C00C5F2EB13A3FB02134FEA531303F00F032E
:101AAC00FA6A1343FB62FB6A9AB27B681A8107F1EC
:101ABC003007BD4680BD00BF80B483B000AF7860F6
:101ACC000B46FB70FB78002B08D07B689B899BB284
:101ADC0043F400539AB27B689A8107E07B689B8938
:101AEC009BB223F400539AB27B689A8107F10C07DE
:101AFC00BD4680BC704700BF80B487B000AF786033
:101B0C0013460A467A807B704FF000033B614FF01E
:101B1C000003FB604FF00003BB604FF000037B61E0
:101B2C007B687B617B88DBB24FEA5313DBB23B6192
:101B3C007B8803F01F03FB60FB684FF0010202FA85
:101B4C0003F3BB603B69012B04D17B6903F10C03EC
:101B5C007B610BE03B69022B04D17B6903F1100321
:101B6C007B6103E07B6903F114037B617B78002BC1
:101B7C0006D07B697A691168BA680A431A6007E073
:101B8C007B697A691168BA686FEA02020A401A60C6
:101B9C0007F11C07BD4680BC704700BF80B487B0FE
:101BAC0000AF78600B467B804FF00003FB604FF07A
:101BBC0000037B614FF00003BB604FF00003FB742C
:101BCC007B88DBB24FEA5313DBB2BB607B8803F03C
:101BDC001F037B617B694FF0010202FA03F37B6107
:101BEC00BB68012B06D17B689B899BB27A69134039
:101BFC007B610FE0BB68022B06D17B681B8A9BB212
:101C0C007A6913407B6105E07B689B8A9BB27A6999
:101C1C0013407B617B884FEA13239BB2FB60FB680C
:101C2C004FF0010202FA03F3FB607B681B889BB246
:101C3C00FA681340FB607B69002B06D0FB68002B15
:101C4C0003D04FF00103FB7402E04FF00003FB7470
:101C5C00FB7C184607F11C07BD4680BC704700BFD3
:101C6C0080B485B000AF786039604FF00003FB8121
:101C7C007B681B88FB817A684FF43053C4F20103F4
:101C8C009A421FD07A684FF45053C4F201039A421F
:101C9C0018D07B68B3F1804F14D07A684FF480630E
:101CAC00C4F200039A420DD07A684FF40063C4F278
:101CBC0000039A4206D07A684FF44063C4F20003E2
:101CCC009A4208D1FB8923F07003FB813B685A8848
:101CDC00FB891343FB817A684FF48053C4F20003F1
:101CEC009A420FD07A684FF4A053C4F200039A4280
:101CFC0008D0FB8923F44073FB813B68DA88FB89AD
:101D0C001343FB817B68FA891A803B689A887B684D
:101D1C009A853B681A887B681A857A684FF4305329
:101D2C00C4F201039A421BD07A684FF45053C4F2A8
:101D3C0001039A4214D07A684FF48043C4F2010331
:101D4C009A420DD07A684FF48843C4F201039A4248
:101D5C0006D07A684FF49043C4F201039A4204D13E
:101D6C003B681B7A1A467B681A867B684FF0010227
:101D7C009A8207F11407BD4680BC704780B485B0C9
:101D8C0000AF786039604FF000037B814FF00003A7
:101D9C00FB814FF00003BB817B681B8C9BB223F053
:101DAC0001039AB27B681A847B681B8CFB817B686D
:101DBC009B88BB817B681B8B7B817B8923F07003A9
:101DCC007B817B8923F003037B813B681A887B89A9
:101DDC0013437B81FB8923F00203FB813B681A8947
:101DEC00FB891343FB813B685A88FB891343FB81B6
:101DFC007A684FF43053C4F201039A421BD07A68CC
:101E0C004FF45053C4F201039A4214D07A684FF441
:101E1C008043C4F201039A420DD07A684FF4884390
:101E2C00C4F201039A4206D07A684FF49043C4F28C
:101E3C0001039A4223D1FB8923F00803FB813B6801
:101E4C005A89FB891343FB81FB8923F00403FB8133
:101E5C003B689A88FB891343FB81BB8923F480730D
:101E6C00BB81BB8923F40073BB813B689A89BB8916
:101E7C001343BB813B68DA89BB891343BB817B6805
:101E8C00BA899A807B687A891A833B68DA887B687E
:101E9C009A867B68FA891A8407F11407BD4680BCC0
:101EAC00704700BF80B485B000AF786039604FF0E8
:101EBC000003BB814FF000037B814FF00003FB81DB
:101ECC007B681B8C9BB223F480539AB27B681A8478
:101EDC007B681B8C7B817B689B88FB817B689B8BE5
:101EEC00BB81BB8923F4E043BB81BB8923F44073E2
:101EFC00BB813B681B884FEA03239AB2BB8913430F
:101F0C00BB817B8923F400537B813B681B894FEA9F
:101F1C0003339AB27B8913437B813B685B884FEA1E
:101F2C0003339AB27B8913437B817A684FF4305325
:101F3C00C4F201039A4206D07A684FF45053C4F2AB
:101F4C0001039A420BD1FB8923F48043FB813B684C
:101F5C009B894FEA83139AB2FB891343FB817B68FD
:101F6C00FA899A807B68BA899A833B68DA887B689D
:101F7C00A3F840207B687A891A8407F11407BD46C0
:101F8C0080BC704780B483B000AF78600B46FB70A8
:101F9C00FB78002B08D07B681B889BB243F00103B5
:101FAC009AB27B681A8007E07B681B889BB223F08F
:101FBC0001039AB27B681A8007F10C07BD4680BCFE
:101FCC00704700BF80B483B000AF786013460A46F8
:101FDC007A807B707B78002B08D07B689B899AB2C7
:101FEC007B8813439AB27B689A810AE07B689B8951
:101FFC009AB27B886FEA03039BB213409AB27B6858
:10200C009A8107F10C07BD4680BC704780B485B03F
:10201C0000AF78600B467B804FF00003FB817B6840
:10202C001B8BFB81FB8923F00803FB81FA897B88DE
:10203C001343FB817B68FA891A8307F11407BD46A9
:10204C0080BC704780B485B000AF78600B467B8055
:10205C004FF00003FB817B689B8BFB81FB8923F496
:10206C000063FB817B884FEA03239AB2FB891343FD
:10207C00FB817B68FA899A8307F11407BD4680BC03
:10208C00704700BF80B483B000AF78600B467B8094
:10209C007B886FEA03039AB27B681A8207F10C07FC
:1020AC00BD4680BC704700BF80B485B000AF78607F
:1020BC000B467B804FF00003FB734FF00003BB819A
:1020CC004FF000037B817B681B8A9AB27B8813409C
:1020DC00BB817B689B899AB27B8813407B81BB89CF
:1020EC00002B06D07B89002B03D04FF00103FB7330
:1020FC0002E04FF00003FB73FB7B184607F114075B
:10210C00BD4680BC704700BF80B483B000AF786020
:10211C000B467B807B886FEA03039AB27B681A823A
:10212C0007F10C07BD4680BC704700BF80B483B07C
:10213C0000AF0346FB714FF00003C4F24223FA795F
:10214C001A6007F10C07BD4680BC704780B485B09F
:10215C0000AF786039604FF00003FB604FF48053A0
:10216C00C4F202035B68FB60FB6823F47C13FB6026
:10217C007A683B681343FA681343FB604FF480534F
:10218C00C4F20203FA685A6007F11407BD4680BC1A
:10219C00704700BF80B483B000AF0346FB714FF0B3
:1021AC006003C4F24223FA791A6007F10C07BD46AA
:1021BC0080BC704780B485B000AF78604FF00003EE
:1021CC00FB604FF48053C4F202035B68FB60FB6856
:1021DC0023F00303FB60FA687B681343FB604FF446
:1021EC008053C4F20203FA685A6007F11407BD4623
:1021FC0080BC704780B485B000AF78604FF00003AE
:10220C00FB604FF48053C4F202035B68FB60FB6815
:10221C0023F0F003FB60FA687B681343FB604FF418
:10222C008053C4F20203FA685A6007F11407BD46E2
:10223C0080BC704780B485B000AF78604FF000036D
:10224C00FB604FF48053C4F202035B68FB60FB68D5
:10225C0023F4E063FB60FA687B681343FB604FF484
:10226C008053C4F20203FA685A6007F11407BD46A2
:10227C0080BC704780B485B000AF78604FF000032D
:10228C00FB604FF48053C4F202035B68FB60FB6895
:10229C0023F46053FB607B684FEAC303FA68134373
:1022AC00FB604FF48053C4F20203FA685A6007F1E2
:1022BC001407BD4680BC704780B485B000AF786011
:1022CC004FF00003FB604FF48053C4F202035B68D1
:1022DC00FB60FB6823F44043FB60FA687B681343A4
:1022EC00FB604FF48053C4F20203FA685A6007F1A2
:1022FC001407BD4680BC704780B487B000AF7860CF
:10230C004FF000037B614FF000033B614FF0000383
:10231C00FB604FF00003BB604FF48053C4F2020328
:10232C005B6803F00C037B617B69042B0AD0082BE0
:10233C000FD0002B4DD17A684FF49053C0F27A0332
:10234C0013604DE07A684FF49053C0F27A03136037
:10235C0046E04FF48053C4F202035B6803F470133D
:10236C003B614FF48053C4F202035B6803F4803387
:10237C00FB603B694FEA934303F102033B61FB684B
:10238C00002B09D13A694FF41063C0F23D0303FBF3
:10239C0002F27B681A6023E04FF48053C4F202030C
:1023AC005B6803F40033002B09D03A694FF41063D7
:1023BC00C0F23D0303FB02F27B681A6010E03A693D
:1023CC004FF49053C0F27A0303FB02F27B681A605D
:1023DC0006E07A684FF49053C0F27A03136000BFA2
:1023EC004FF48053C4F202035B6803F0F0037B618B
:1023FC007B694FEA13137B6140F20003C2F20003C6
:10240C007A699B181B78DBB2BB607B681A68BB6867
:10241C0022FA03F27B685A604FF48053C4F2020331
:10242C005B6803F4E0637B617B694FEA13237B6198
:10243C0040F20003C2F200037A699B181B78DBB2EE
:10244C00BB607B685A68BB6822FA03F27B689A60AF
:10245C004FF48053C4F202035B6803F460537B6156
:10246C007B694FEAD3237B6140F20003C2F2000385
:10247C007A699B181B78DBB2BB607B685A68BB68B7
:10248C0022FA03F27B68DA604FF48053C4F2020341
:10249C005B6803F440437B617B694FEA93337B6158
:1024AC0040F21003C2F200037A699B181B78DBB26E
:1024BC00BB607B68DA68BB68B2FBF3F27B681A61BD
:1024CC0007F11C07BD4680BC704700BF80B483B0C9
:1024DC0000AF78600B46FB70FB78002B0CD04FF4F0
:1024EC008053C4F202034FF48052C4F20202916989
:1024FC007A680A439A610DE04FF48053C4F20203E8
:10250C004FF48052C4F2020291697A686FEA0202B7
:10251C000A409A6107F10C07BD4680BC704700BFAA
:10252C0080B483B000AF78600B46FB70FB78002B57
:10253C000CD04FF48053C4F202034FF48052C4F217
:10254C000202D1697A680A43DA610DE04FF48053D4
:10255C00C4F202034FF48052C4F20202D1697A68C9
:10256C006FEA02020A40DA6107F10C07BD4680BC33
:10257C00704700BF80B483B000AF0346FB7141F2DB
:10258C000703C4F20203FA791A7007F10C07BD466F
:10259C0080BC704780B489B000AF786039604FF070
:1025AC000003FB614FF000033B614FF00003BB6184
:1025BC004FF00003FB604FF000037B614FF0000312
:1025CC00BB603B68DB7803F00F03FB613B68DB7897
:1025DC0003F01003002B04D03B689B78FA6913437B
:1025EC00FB613B681B88DBB2002B4ED07B681B6801
:1025FC007B614FF00003BB6141E0BB694FF001020E
:10260C0002FA03F3FB603B681B881A46FB68134015
:10261C003B613A69FB689A422DD1BB694FEA83034F
:10262C00FB60FB684FF00F0202FA03F3BB60BB6860
:10263C006FEA03037A6913407B61FB68FA6902FA5B
:10264C0003F37A6913437B613B68DB78282B07D152
:10265C00BB694FF0010202FA03F27B685A610AE08F
:10266C003B68DB78482B06D1BB694FF0010202FABC
:10267C0003F27B681A61BB6903F10103BB61BB699F
:10268C00072BBAD97B687A691A603B681B88FF2BC9
:10269C0053D97B685B687B614FF00003BB6146E0FC
:1026AC00BB6903F108034FF0010202FA03F3FB606C
:1026BC003B681B881A46FB6813403B613A69FB6810
:1026CC009A4230D1BB694FEA8303FB60FB684FF041
:1026DC000F0202FA03F3BB60BB686FEA03037A696B
:1026EC0013407B61FB68FA6902FA03F37A691343BE
:1026FC007B613B68DB78282B08D1BB6903F10803AD
:10270C004FF0010202FA03F27B685A613B68DB78F6
:10271C00482B08D1BB6903F108034FF0010202FA00
:10272C0003F27B681A61BB6903F10103BB61BB69EE
:10273C00072BB5D97B687A695A6007F12407BD4627
:10274C0080BC704780B483B000AF78600B467B8050
:10275C007A887B681A6107F10C07BD4680BC70470C
:10276C0080B483B000AF78600B467B807A887B683E
:10277C005A6107F10C07BD4680BC704780B487B026
:10278C0000AF78600B46FB704FF000033B614FF0DD
:10279C000003FB604FF000037B614FF00003BB6054
:1027AC007B68002B06DA4FF00003C4F20103DB69EF
:1027BC007B6105E04FF00003C4F201035B687B61B1
:1027CC007B6803F470234FEA1343BB607B684FEACA
:1027DC0003434FEA13433B617B6803F44013B3F5A7
:1027EC00401F10D17B6923F070637B614FF00003B5
:1027FC00C4F201034FF00002C4F20102526822F04D
:10280C0070625A6026E07B6803F48013002B10D0B2
:10281C00BB684FF0030202FA03F3FB60FB686FEA3C
:10282C0003037A6913407B617B6943F070637B61BE
:10283C0010E07B684FEA53534FEA03133A6902FAEC
:10284C0003F36FEA03037A6913407B617B6943F0FE
:10285C0070637B61FB78002B0AD07B684FEA535383
:10286C004FEA03133A6902FA03F37A6913437B6163
:10287C007B68002B06DA4FF00003C4F201037A697F
:10288C00DA6105E04FF00003C4F201037A695A6083
:10289C0007F11C07BD4680BC704700BF80B483B0F5
:1028AC0000AF78604FF46D43CEF200037A6842F0CB
:1028BC00BF6242F40032DA6007F10C07BD4680BCFF
:1028CC00704700BF80B487B000AF78604FF0000352
:1028DC007B614FF000033B614FF00F03FB607B68A3
:1028EC00DB78002B47D04FF46D43CEF20003DB684E
:1028FC006FEA030303F4E0634FEA13237B617B6904
:10290C00C3F104033B617B69FA6822FA03F3FB60B1
:10291C007B685B781A463B6902FA03F37B617B6840
:10292C009B781A46FB6813407A6913437B617B6979
:10293C004FEA03137B614FF46143CEF200037A68D4
:10294C00127811467A69D2B25B1883F800234FF4DF
:10295C006143CEF200037A6812784FEA5212D2B277
:10296C007968097801F01F014FF0010000FA01F1BC
:10297C0043F8221014E04FF46143CEF200037A685E
:10298C0012784FEA5212D2B27968097801F01F011D
:10299C004FF0010000FA01F102F1200243F822107D
:1029AC0007F11C07BD4680BC704700BF80B483B0E4
:1029BC0000AF78607B68042B0CD14EF21003CEF282
:1029CC0000034EF21002CEF20002126842F0040232
:1029DC001A600BE04EF21003CEF200034EF210021E
:1029EC00CEF20002126822F004021A6007F10C0702
:1029FC00BD4680BC704700BF38B50E4D0E4B002451
:102A0C00E81A8510AC4205D00B4951F824209047A8
:102A1C000134F7E700F016F80849094A541AA510D2
:102A2C000024AC4205D0054B53F8240080470134F8
:102A3C00F7E738BD682A0008682A0008682A0008E9
:102A4C006C2A0008F8B500BFF8BC08BC9E4670475D
:0C2A5C00F8B500BFF8BC08BC9E467047EF
:042A68003101000830
:042A6C000D01000850
:102A70000000000001020304010203040607080924
:042A8000020406083E
:04000005080003C12B
:00000001FF
