:020000040800F2
:1000000000500020C102000819030008190300086D
:100010001903000819030008190300080000000074
:1000200000000000000000000000000019030008AC
:10003000190300080000000019030008FD0E000865
:100040001903000819030008190300081903000820
:100050001903000819030008190300081903000810
:100060001903000819030008190300081903000800
:1000700019030008190300081903000819030008F0
:100080001903000819030008C11300081903000828
:1000900019030008190300081903000819030008D0
:1000A0001903000819030008190300086D1400085B
:1000B000D5070008190300081903000819030008F0
:1000C00019030008190300081903000819030008A0
:1000D0001903000819030008190300083D0E000861
:1000E00019030008190300081903000800000000A4
:1000F0000000000000000000000000000000000000
:0C01000000000000000000005FF808F1A3
:10010C0010B5054C237833B9044B13B10448AFF345
:10011C0000800123237010BD14000020000000009B
:10012C00C423000808B5034B1BB103480349AFF3C4
:10013C00008008BD00000000C42300081800002047
:10014C0080B500AF154B154A126842F001021A60D7
:10015C00124A124B5968124B0B4053600F4A0F4B0B
:10016C001B6823F0847323F4803313600B4B0B4A0E
:10017C00126822F480221A60084B084A526822F452
:10018C00FE025A60054B4FF41F029A6000F00CF807
:10019C00044B4FF000629A6080BD00BF001002401B
:1001AC000000FFF800ED00E080B500AF00F002F8B1
:1001BC0080BD00BF80B483B000AF00237B60002300
:1001CC003B603A4B394A126842F480321A60374B22
:1001DC001B6803F400333B607B6801337B603B6836
:1001EC00002B03D17B68B3F5A06FF0D12F4B1B68AC
:1001FC0003F40033002B02D001233B6001E0002309
:10020C003B603B68012B4BD1294B294A126842F0C9
:10021C0010021A60264B264A126822F003021A605A
:10022C00234B234A126842F002021A601F4B1F4AEA
:10023C0052685A601D4B1D4A52685A601B4B1B4A30
:10024C00526842F480625A60184B184A526822F481
:10025C007C125A60154B154A526842F4E8125A60E7
:10026C00124B124A126842F080721A6000BF0F4B98
:10027C001B6803F00073002BF9D00C4B0B4A52682F
:10028C0022F003025A60094B084A526842F00202FB
:10029C005A6000BF054B5B6803F00C03082BF9D1C7
:1002AC000C37BD465DF8047B704700BF0010024060
:1002BC0000200240DFF83CD0002100F004B80E4BC7
:1002CC005B58435004310D480D4B42189A42FFF4D1
:1002DC00F6AF0C4A00F003B8002342F8043B0A4B7B
:1002EC009A42FFF4F9AFFFF72BFF02F03FF800F052
:1002FC002BFC704700500020E42300080000002075
:10030C00140000201400002050000020FFF7FEBF56
:10031C0080B58CB000AF182387F82F30032387F8F3
:10032C002E304023BB8507F12C034B48194601F0B6
:10033C0047FE4FF40073BB8507F12C034648194662
:10034C0001F03EFE4FF40073BB8507F12C034348CC
:10035C00194601F035FE4248012101F009FF132333
:10036C003B8400237B8440F2E733BB840023FB8473
:10037C00002387F8283007F120033A48194601F08A
:10038C001FFA07F120033848194601F019FA3548CD
:10039C00012101F085FB3448012101F081FB07F1BB
:1003AC00100300221A60043300221A600433002266
:1003BC001A60043300221A60043360233B826423E6
:1003CC00FB8201237B8200233B8307F1100325482A
:1003DC00194601F071FA2348082101F0A5FB07F139
:1003EC0010032048194601F0F3FA1E48082101F0C9
:1003FC00B7FB07F110031C48194601F0E9FA1A483B
:10040C00082101F0ADFB40F60F63BB800023FB809D
:10041C0040F2CF733B8100237B8100233B733B1D58
:10042C004FF08040194601F0CBF900233B82642346
:10043C00FB8201237B8200233B834FF0804002210F
:10044C00012201F04DFB4FF08040012101F028FB0F
:10045C003037BD4680BD00BF00100140000C01408C
:10046C00000C1A00000400400008004080B582B067
:10047C0000AF2748012101F07BFE1023FB71022302
:10048C00BB714FF48063BB803B1D2248194601F0C1
:10049C0097FD8023BB803B1D1E48194601F090FD43
:1004AC004FF48073BB803B1D1A48194601F088FD40
:1004BC002023BB803B1D1748194601F081FD4FF4EA
:1004CC008073BB803B1D1448194601F079FD022353
:1004DC00BB803B1D1048194601F072FD4FF40053D0
:1004EC00BB803B1D0B48194601F06AFD0423BB8001
:1004FC003B1D0948194601F063FD4FF48063BB8036
:10050C003B1D0648194601F05BFD0837BD4680BD12
:10051C000001300000100140000C014000080140B7
:10052C0080B582B000AF13460246FA710A46BA8013
:10053C00BB71BB88C3F57F730333BB80FB79012B85
:10054C0026D1BB79012B09D146484FF4806101F0CB
:10055C00F3FD4448802101F0FDFD15E0BB79022B31
:10056C0009D140484FF4806101F0F4FD3D488021F1
:10057C0001F0E2FD08E03B484FF4806101F0EAFD38
:10058C003848802101F0E6FD374BBA889A8654E052
:10059C00FB79022B27D1BB79012B09D131484FF4C0
:1005AC00807101F0C9FD2F48202101F0D3FD15E029
:1005BC00BB79022B09D12B484FF4807101F0CAFD95
:1005CC002848202101F0B8FD08E026484FF480713E
:1005DC0001F0C0FD2348202101F0BCFD224BBA885C
:1005EC00A3F8402029E0FB79032B26D1BB79012B02
:1005FC0009D11E484FF4807101F09EFD1B48022169
:10060C0001F0A8FD15E0BB79022B09D117484FF476
:10061C00807101F09FFD1548022101F08DFD08E06D
:10062C0012484FF4807101F095FD1048022101F041
:10063C0091FD0F4BBA88A3F84020BA8840F2FF33E3
:10064C009A4205D1FB791846032100F013F805E016
:10065C00FA79BB791046194600F00CF80837BD46FC
:10066C0080BD00BF0010014000040040000C0140A0
:10067C000008004080B582B000AF786039607B68BC
:10068C00022B3AD0032B66D0012B00D091E03B68B3
:10069C00012B0AD148484FF4006101F04DFD46484A
:1006AC004FF4805101F056FD26E03B68022B0AD135
:1006BC0041484FF4006101F04DFD3F484FF480512B
:1006CC0001F03AFD18E03B68032B0AD13A484FF48D
:1006DC00006101F031FD38484FF4805101F02CFDE0
:1006EC000AE035484FF4006101F034FD32484FF414
:1006FC00805101F02FFD5CE05BE03B68012B08D1E1
:10070C002D48082101F018FD2B48042101F022FD91
:10071C0020E03B68022B08D12748082101F01AFD84
:10072C002548042101F008FD14E03B68032B08D197
:10073C002148082101F000FD1F48042101F0FCFCB8
:10074C0008E01D48082101F005FD1B48042101F0BB
:10075C0001FD2EE02DE03B68012B08D1164810213D
:10076C0001F0EAFC1448202101F0F4FC20E03B6885
:10077C00022B08D11048102101F0ECFC0E4820216E
:10078C0001F0DAFC14E03B68032B08D10A48102175
:10079C0001F0D2FC0848202101F0CEFC08E006480C
:1007AC00102101F0D7FC0448202101F0D3FCFFE715
:1007BC0000BF0837BD4680BD0008014080B400AFC3
:1007CC00BD465DF8047B704780B500AF9D4B1B7C2C
:1007DC00DBB2072B00F2A68101A252F823F000BF76
:1007EC000D080008550900082B080008C10800086E
:1007FC0087090008190A0008C30A0008E50A00085E
:10080C00904BDB7BDBB2002B08D08E4BDB7BDAB260
:10081C008C4B1A748B4B0022DA7383E182E18A4889
:10082C00042101F097FC89484FF4806101F092FC9F
:10083C00874B4FF496621A80824B9B899BB21BB2FA
:10084C0013F1C70F1DDB834B1A88814B1B889A420F
:10085C0011D37C4B9B899BB29BB2013B9AB2794BD7
:10086C009A817D4B7C4AD26882F40052DA60794BD3
:10087C0000221A8005E0774B1B8801339AB2754B26
:10088C001A80704BDB7BDBB2032B09D06D4BDB7B0F
:10089C00DBB2012B04D06B4BDB7BDBB2042B08D11E
:1008AC00684BDB7BDAB2674B1A74664B0022DA7347
:1008BC0038E137E165484FF4806101F04BFC624848
:1008CC00042101F039FC624B4FF496621A805D4BA7
:1008DC009B899BB21BB2C72B1DDC5E4B1A885C4BF1
:1008EC001B889A4211D3574B9B899BB29BB2013305
:1008FC009AB2544B9A81584B574AD26882F40052A0
:10090C00DA60544B00221A8005E0524B1B880133ED
:10091C009AB2504B1A804B4BDB7BDBB2022B09D0CB
:10092C00484BDB7BDBB2012B04D0464BDB7BDBB2D1
:10093C00042B08D1434BDB7BDAB2424B1A74414B8C
:10094C000022DA73EEE0EDE03E4BDB7BDBB2022BF8
:10095C0009D03C4BDB7BDBB2032B04D0394BDB7B6C
:10096C00DBB2042B08D1374BDB7BDAB2354B1A7474
:10097C00344B0022DA73D5E0D4E0324B9B899BB226
:10098C001BB2002B0CDD3048042101F0E3FB2F4897
:10099C004FF4806101F0DEFB2A4B00229A731FE0BA
:1009AC00284B9B899BB21BB2002B15DA254B9B89DC
:1009BC009BB29BB25B429BB29AB2224B9A81234868
:1009CC004FF4806101F0C6FB1F48042101F0B4FB19
:1009DC001C4B01229A7303E01A4B00221A74A1E0FB
:1009EC00184B9B899BB29BB21A469203D21A920067
:1009FC00D31A9BB203F698039AB2154B1A80154B77
:100A0C0000221A800F4B05221A748BE0114B1A88A6
:100A1C000F4B1B889A4247D30A4B9B899BB21BB244
:100A2C0013F1310F1ADB074B9B899BB29BB2013B35
:100A3C009AB2044B9A81084B074AD26882F400524E
:100A4C00DA602DE03C000020000C01400008014061
:100A5C00300000203200002000100140324B0622F2
:100A6C001A74324B4FF4E1621A802F4B9B7BDBB232
:100A7C00002B09D12E484FF4806101F06BFB2D48FF
:100A8C00042101F059FB08E02A48042101F062FB23
:100A9C0027484FF4806101F05DFB274B274A1A6011
:100AAC00274B00221A803DE0254B1B8801339AB25C
:100ABC00234B1A8036E0204B1B685A1E1E4B1A60C3
:100ACC001D4B1B68002B06D1174B07221A741C4BAD
:100ADC0000221A8026E025E0194B1A88134B1B883C
:100AEC009A4218D3104B9B899BB201339BB29BB299
:100AFC000D4A19469181002B03D10B4B00221A741D
:100B0C0005E0104B0F4AD26882F40052DA600C4BAD
:100B1C0000221A8005E00A4B1B8801339AB2084B5D
:100B2C001A8000BF80BD00BF3C00002030000020B8
:100B3C0000080140000C014034000020A086010098
:100B4C00320000200010014080B500AFFFF7F8FA2A
:100B5C0000F038F800F0AEFB00F016FA00F0BCF92B
:100B6C00FFF7D6FBFFF782FC00F062F800F0D4FB35
:100B7C0000F050FC00F0CCF900F07CFB01200021CF
:100B8C000322FFF7CDFC022000210322FFF7C8FC53
:100B9C00032000210322FFF7C3FCFEE780B485B0DD
:100BAC0000AF78600023FB6002E0FB680133FB6060
:100BBC007B681A03FB689A42F7D81437BD465DF878
:100BCC00047B704780B500AF012001F031F80020A4
:100BDC004FF4801101F03CF8022001F067F801207D
:100BEC0001F054F8072001F0DBF9002001F07AF84D
:100BFC00002001F093F8002001F0ACF880BD00BF9C
:100C0C0080B483B000AF0346FB71084B97F9072003
:100C1C005209F97901F01F01012000FA01F143F8A2
:100C2C0022100C37BD465DF8047B704700E100E0F4
:100C3C0080B586B000AF0323BB754FF40063BB8255
:100C4C000423FB7507F114031848194601F0B8F991
:100C5C004FF48063BB821823FB7507F11403134810
:100C6C00194601F0ADF94FF416537B6000233B821B
:100C7C000C23FB810023BB8100237B8100233B8160
:100C8C000B48012100F0DCFC3B1D0948194600F023
:100C9C001DFC074840F22551012200F0F1FC2720F1
:100CAC00FFF7AEFF1837BD4680BD00BF000C0140FA
:100CBC000048004080B584B000AF7860786840F29E
:100CCC00255100F025FD0346002B00F09D80544B70
:100CDC0001225A707B689B899BB223F020039AB245
:100CEC007B689A817B689B889BB2FB73FB7BFF2B99
:100CFC0008D14B4B1B78DBB2002B03D1484B0122A4
:100D0C001A7078E0464B1B78DBB2012B53D1FB7B7E
:100D1C001B09DAB2434B1A70FB7B03F00C039B10DC
:100D2C00DAB2414B1A70FB7B03F00303DAB23F4B90
:100D3C001A703C4B1B78013B072B3AD801A252F896
:100D4C0023F000BF710D0008710D0008710D000833
:100D5C00790D0008870D0008950D0008A30D0008FB
:100D6C00B10D00082E4B02221A7023E02C4B0222EC
:100D7C00DA732B4B00221A701CE0294B0322DA7316
:100D8C00274B00221A7015E0254B0122DA73244BF5
:100D9C0000221A700EE0224B0422DA73204B002240
:100DAC001A7007E01E4B00229A811D4B00221A700C
:100DBC0000E000BF1FE01A4B1B78DBB2022B1AD1EC
:100DCC00184B1B78013B022B11D8164B1978174B7B
:100DDC001B781B029AB2FB7B9BB213449AB2124B48
:100DEC001B78084611461A46FFF79AFB00E000BF35
:100DFC000B4B00221A707B689B899BB243F020033B
:100E0C009AB27B689A8108E07B689B899BB243F01D
:100E1C0020039AB27B689A8100BF1037BD4680BD13
:100E2C003C00002038000020390000203A0000204F
:100E3C0080B500AF0148FFF73DFF80BD0048004082
:100E4C0080B483B000AF03463960FB7197F907306B
:100E5C00002B0BDA0D49FB7903F00F03043B3A68C6
:100E6C00D2B21201D2B20B441A7609E0084997F9B2
:100E7C0007303A68D2B21201D2B20B4483F8002385
:100E8C000C37BD465DF8047B704700BF00ED00E0F9
:100E9C0000E100E080B582B000AF78607B68B3F110
:100EAC00807F01D3012311E00A4B7A6822F07F4244
:100EBC00013A5A604FF0FF300F21FFF7C1FF054B8D
:100ECC0000229A60034B07221A6000231846083749
:100EDC00BD4680BD10E000E080B500AF0348FFF7D1
:100EEC00D9FF6FF0040001F025FA80BDA086010047
:100EFC0080B500AF054B5B78DBB2002B01D1FFF75F
:100F0C005DFC024B00225A7080BD00BF3C000020EB
:100F1C0080B584B000AF4FF4E06001F099F927235D
:100F2C003B7300237B730123BB730123FB7307F11A
:100F3C000C03184601F09EF912233B7200237B72BE
:100F4C000223BB720123FB7207F10803184601F060
:100F5C0091F91B233B710123FB7100237B7103234C
:100F6C00BB713B1D184601F085F91C233B70012316
:100F7C00FB7000237B700423BB703B46184601F0CA
:100F8C0079F91037BD4680BD80B582B000AF102313
:100F9C00FB710223BB7141F6FC43BB803B1D254812
:100FAC00194601F00DF82423BB803B1D224819463D
:100FBC0001F006F84FF40053BB803B1D1F48194647
:100FCC0000F0FEFF00F03CF81A484FF4806101F08D
:100FDC00B3F81948242101F0AFF818484FF4005128
:100FEC0001F0AAF84FF47A70FFF7D8FD11484FF4CE
:100FFC00806101F0AFF81048242101F0ABF80F48E4
:10100C004FF4005101F0A6F84FF47A70FFF7C6FDCB
:10101C0008484FF4806101F08FF80748242101F053
:10102C008BF806484FF4005101F086F80837BD469E
:10103C0080BD00BF00080140000C014000100140C1
:10104C0080B582B000AF96237B6089484FF4006175
:10105C0001F072F886484FF4805101F06DF8844825
:10106C00082101F069F88248042101F065F88048F4
:10107C00102101F061F87E48202101F05DF87B68B9
:10108C001846FFF78BFD00F0F5F87B681846FFF764
:10109C0085FD77484FF4006101F04EF874484FF429
:1010AC00805101F049F87248082101F045F8704868
:1010BC00042101F041F86E48102101F03DF86C4814
:1010CC00202101F039F87B681846FFF767FD00F026
:1010DC00D1F87B681846FFF761FD65484FF4006155
:1010EC0001F02AF87B681846FFF758FD60484FF46A
:1010FC00805101F021F87B681846FFF74FFD5C48E2
:10110C00082101F019F87B681846FFF747FD58488D
:10111C00042101F011F87B681846FFF73FFD544895
:10112C00102101F009F87B681846FFF737FD50488D
:10113C00202101F001F87B681846FFF72FFD4C4881
:10114C004FF4006101F006F87B681846FFF726FDA6
:10115C0047484FF4805100F0FDFF7B681846FFF7BD
:10116C001DFD4348082100F0F5FF7B681846FFF78A
:10117C0015FD3F48042100F0EDFF7B681846FFF792
:10118C000DFD3B48102100F0E5FF7B681846FFF78A
:10119C0005FD3748202100F0DDFF7B681846FFF77E
:1011AC00FDFC33484FF4006100F0C6FF7B68184625
:1011BC00FFF7F4FC2E484FF4805100F0BDFF7B6824
:1011CC001846FFF7EBFC2A48082100F0B5FF7B68B6
:1011DC001846FFF7E3FC2648042100F0ADFF7B68BE
:1011EC001846FFF7DBFC2248102100F0A5FF7B68B6
:1011FC001846FFF7D3FC1E48202100F09DFF7B68AA
:10120C001846FFF7CBFC1A484FF4006100F0A2FF20
:10121C007B681846FFF7C2FC15484FF4805100F06C
:10122C0099FF7B681846FFF7B9FC1148082100F0BC
:10123C0091FF7B681846FFF7B1FC0D48042100F0C4
:10124C0089FF7B681846FFF7A9FC0948102100F0BC
:10125C0081FF7B681846FFF7A1FC0548202100F0B0
:10126C0079FF7B681846FFF799FC0837BD4680BDAF
:10127C000008014080B500AF0D484FF4006100F04C
:10128C0069FF0B484FF4805100F064FF08480821B7
:10129C0000F060FF0648042100F05CFF04481021B8
:1012AC0000F058FF0248202100F054FF80BD00BF21
:1012BC000008014080B500AF0420012100F034FE8D
:1012CC000820012100F030FE1020012100F02CFE3E
:1012DC002020012100F028FE0120012100F024FE35
:1012EC004FF48020012100F03DFE4FF400600121FD
:1012FC0000F01AFE0120012100F034FE0220012131
:10130C0000F030FE0420012100F02CFE4FF40070A0
:10131C00012100F009FE80BD80B582B000AF012331
:10132C00BB800223BB710023FB713B1D1F48194678
:10133C0000F046FE4FF4404000F028FD1C4B032209
:10134C009A601B4B0022DA62194B0A225A63184B23
:10135C00174AD26842F00702DA60154B144A5268F9
:10136C0042F020025A60124B114A926842F0080275
:10137C009A6000BF0E4B9B6803F00803002BF9D159
:10138C000B4B0B4A926842F004029A6000BF084B68
:10139C009B6803F00403002BF9D1054B044A9268B7
:1013AC0042F001029A600837BD4680BD0010014032
:1013BC000024014080B400AF144B1B6803F00203FF
:1013CC00002B1ED0124B5A68104BDB6C1B091A44B5
:1013DC000F4B5A600E4B9B78DBB20133DAB20C4BDD
:1013EC009A700B4B9B78DBB2FF2B0AD1084B002277
:1013FC009A70074B5B681A0A054B9A60044B0022E3
:10140C005A60BD465DF8047B704700BF0024014064
:10141C003C00002080B584B000AF48F69F43BB80F1
:10142C000023FB8040F2CF733B8100237B810023A0
:10143C003B733B1D0948194600F0C2F907480121CE
:10144C0000F0ACFB05480221012200F049FB0348E7
:10145C00012100F025FB1037BD4680BD002C01405A
:10146C0080B500AF1648022100F0A8FB0346002B04
:10147C0024D01348022100F0CBFB124B9B68D82BD5
:10148C000FD91148402100F065FE0D4B0D4A9268B2
:10149C0092B2D83A92B2D20192B2633292B29A8597
:1014AC0006E0074B63229A850748402100F044FE72
:1014BC00054B054AD26882F08002DA6080BD00BF1D
:1014CC00002C01403C0000200008014080B58CB08D
:1014DC0000AF786039600023FB620023BB620023FD
:1014EC007B6200233B620023FB617B68FB617B68B2
:1014FC001B8A9BB2FB62FA6A4CF6FF731340FB62C9
:10150C003B68DB88FA6A1343FB62FB6A9AB27B681E
:10151C001A827B689B899BB2FB62FA6A4EF6F313C4
:10152C001340FB623B689A883B681B8913439AB251
:10153C003B685B8913439BB2FA6A1343FB62FB6AF9
:10154C009AB27B689A817B689B8A9BB2FB62FA6A2F
:10155C004FF6FF431340FB623B689B89FA6A1343C7
:10156C00FB62FB6A9AB27B689A8207F10803184601
:10157C0000F028FCFA69304B9A4202D17B69BB62BD
:10158C0001E03B69BB627B689B899BB29BB21BB23F
:10159C00002B0CDABA6A13469B0013449A001A44C7
:1015AC003B681B685B00B2FBF3F37B620BE0BA6A2F
:1015BC0013469B0013449A001A443B681B689B001B
:1015CC00B2FBF3F37B627A6A1C4BA3FB02135B093D
:1015DC001B01FB62FB6A1B09642202FB03F37A6AA0
:1015EC00D31A3B627B689B899BB29BB21BB2002BCC
:1015FC000DDA3B6ADB0003F13202104BA3FB021342
:10160C005B0903F00703FA6A1343FB620CE03B6AC5
:10161C001B0103F13202094BA3FB02135B0903F01C
:10162C000F03FA6A1343FB62FB6A9AB27B681A8156
:10163C003037BD4680BD00BF003801401F85EB51DF
:10164C0080B483B000AF78600B46FB70FB78002B46
:10165C0008D07B689B899BB243F400539AB27B6899
:10166C009A8107E07B689B899BB223F400539AB262
:10167C007B689A810C37BD465DF8047B704700BFD0
:10168C0080B487B000AF786013460A467A807B70CE
:10169C0000233B610023FB600023BB6000237B61C4
:1016AC007B687B617B88DBB25B09DBB23B617B884F
:1016BC0003F01F03FB60FB68012202FA03F3BB601B
:1016CC003B69012B03D17B690C337B6109E03B69DE
:1016DC00022B03D17B6910337B6102E07B691433ED
:1016EC007B617B78002B06D07B697A691168BA68BC
:1016FC000A431A6006E07B697A691168BA68D243BA
:10170C000A401A601C37BD465DF8047B704700BF69
:10171C0080B487B000AF78600B467B800023FB6001
:10172C0000237B610023BB600023FB747B88DBB24E
:10173C005B09DBB2BB607B8803F01F037B617B69B9
:10174C00012202FA03F37B61BB68012B06D17B6893
:10175C009B899BB27A6913407B610FE0BB68022BBB
:10176C0006D17B681B8A9BB27A6913407B6105E0CA
:10177C007B689B8A9BB27A6913407B617B881B0ACE
:10178C009BB2FB60FB68012202FA03F3FB607B68EF
:10179C001B889BB2FA681340FB607B69002B05D059
:1017AC00FB68002B02D00123FB7401E00023FB74C7
:1017BC00FB7C18461C37BD465DF8047B704700BFA8
:1017CC0080B485B000AF786039600023FB817B6802
:1017DC001B88FB817A682E4B9A4213D07A682D4B6A
:1017EC009A420FD07B68B3F1804F0BD07A682A4BAA
:1017FC009A4207D07A68294B9A4203D07A68284BD0
:10180C009A4208D1FB8923F07003FB813B685A880C
:10181C00FB891343FB817A68224B9A420CD07A687D
:10182C00214B9A4208D0FB8923F44073FB813B681F
:10183C00DA88FB891343FB817B68FA891A803B6841
:10184C009A887B689A853B681A887B681A857A68BF
:10185C000F4B9A420FD07A680E4B9A420BD07A6893
:10186C00124B9A4207D07A68114B9A4203D07A688D
:10187C00104B9A4204D13B681B7A1A467B681A8635
:10188C007B6801229A821437BD465DF8047B704751
:10189C00002C0140003401400004004000080040CE
:1018AC00000C0040001000400014004000400140BB
:1018BC00004401400048014080B485B000AF78601E
:1018CC00396000237B810023FB810023BB817B6873
:1018DC001B8C9BB223F001039AB27B681A847B6841
:1018EC001B8CFB817B689B88BB817B681B8B7B8102
:1018FC007B8923F070037B817B8923F003037B813D
:10190C003B681A887B8913437B81FB8923F0020394
:10191C00FB813B681A89FB891343FB813B685A881E
:10192C00FB891343FB817A68244B9A420FD07A6867
:10193C00234B9A420BD07A68224B9A4207D07A6892
:10194C00214B9A4203D07A68204B9A4223D1FB89CF
:10195C0023F00803FB813B685A89FB891343FB8105
:10196C00FB8923F00403FB813B689A88FB891343B2
:10197C00FB81BB8923F48073BB81BB8923F4007387
:10198C00BB813B689A89BB891343BB813B68DA896D
:10199C00BB891343BB817B68BA899A807B687A893F
:1019AC001A833B68DA887B689A867B68FA891A8482
:1019BC001437BD465DF8047B704700BF002C014016
:1019CC000034014000400140004401400048014007
:1019DC0080B485B000AF786039600023BB810023F0
:1019EC007B810023FB817B681B8C9BB223F480538F
:1019FC009AB27B681A847B681B8C7B817B689B8882
:101A0C00FB817B689B8BBB81BB8923F4E043BB814F
:101A1C00BB8923F44073BB813B681B881B029AB2C1
:101A2C00BB891343BB817B8923F400537B813B68C7
:101A3C001B891B039AB27B8913437B813B685B88B0
:101A4C001B039AB27B8913437B817A68124B9A42AF
:101A5C0003D07A68114B9A420AD1FB8923F4804354
:101A6C00FB813B689B899B019AB2FB891343FB81E9
:101A7C007B68FA899A807B68BA899A833B68DA8892
:101A8C007B68A3F840207B687A891A841437BD469A
:101A9C005DF8047B704700BF002C0140003401400E
:101AAC0080B483B000AF78600B46FB70FB78002BE2
:101ABC0008D07B681B889BB243F001039AB27B6809
:101ACC001A8007E07B681B889BB223F001039AB253
:101ADC007B681A800C37BD465DF8047B704700BFED
:101AEC0080B483B000AF786013460A467A807B706E
:101AFC007B78002B08D07B689B899AB27B88134338
:101B0C009AB27B689A8109E07B689B899AB27B8840
:101B1C00DB439BB213409AB27B689A810C37BD466B
:101B2C005DF8047B704700BF80B485B000AF78606F
:101B3C000B467B800023FB817B681B8BFB81FB8925
:101B4C0023F00803FB81FA897B881343FB817B68B4
:101B5C00FA891A831437BD465DF8047B704700BFC1
:101B6C0080B485B000AF78600B467B800023FB818E
:101B7C007B689B8BFB81FB8923F40063FB817B8857
:101B8C001B029AB2FB891343FB817B68FA899A8307
:101B9C001437BD465DF8047B704700BF80B483B03A
:101BAC0000AF78600B467B807B88DB439AB27B6806
:101BBC001A820C37BD465DF8047B704780B485B043
:101BCC0000AF78600B467B800023FB730023BB8146
:101BDC0000237B817B681B8A9AB27B881340BB8174
:101BEC007B689B899AB27B8813407B81BB89002BD5
:101BFC0005D07B89002B02D00123FB7301E000236D
:101C0C00FB73FB7B18461437BD465DF8047B7047AD
:101C1C0080B483B000AF78600B467B807B88DB435D
:101C2C009AB27B681A820C37BD465DF8047B70470C
:101C3C0080B483B000AF0346FB71044BFA791A6091
:101C4C000C37BD465DF8047B704700BF0000424274
:101C5C0080B485B000AF786039600023FB600A4B1C
:101C6C005B68FB60FB6823F47C13FB607A683B6861
:101C7C001343FA681343FB60034BFA685A6014373A
:101C8C00BD465DF8047B70470010024080B483B001
:101C9C0000AF0346FB71044BFA791A600C37BD4652
:101CAC005DF8047B704700BF6000424280B485B091
:101CBC0000AF78600023FB60094B5B68FB60FB683E
:101CCC0023F00303FB60FA687B681343FB60044B4F
:101CDC00FA685A601437BD465DF8047B704700BF44
:101CEC000010024080B485B000AF78600023FB6028
:101CFC00094B5B68FB60FB6823F0F003FB60FA6840
:101D0C007B681343FB60044BFA685A601437BD467A
:101D1C005DF8047B704700BF0010024080B485B0B2
:101D2C0000AF78600023FB60094B5B68FB60FB68CD
:101D3C0023F4E063FB60FA687B681343FB60044B9D
:101D4C00FA685A601437BD465DF8047B704700BFD3
:101D5C000010024080B485B000AF78600023FB60B7
:101D6C00094B5B68FB60FB6823F46053FB607B688A
:101D7C00DB00FA681343FB60034BFA685A601437B4
:101D8C00BD465DF8047B70470010024080B485B0FE
:101D9C0000AF78600023FB60094B5B68FB60FB685D
:101DAC0023F44043FB60FA687B681343FB60044BED
:101DBC00FA685A601437BD465DF8047B704700BF63
:101DCC000010024080B487B000AF786000237B61C4
:101DDC0000233B610023FB600023BB604D4B5B6821
:101DEC0003F00C037B617B69042B07D0082B09D013
:101DFC00002B34D17B68484A1A6034E07B68464A31
:101E0C001A6030E0434B5B6803F470133B61414B49
:101E1C005B6803F48033FB603B699B0C02333B61D2
:101E2C00FB68002B06D13B693C4A02FB03F27B6842
:101E3C001A6013E0374B5B6803F40033002B06D0B9
:101E4C003B69364A02FB03F27B681A6006E03B6989
:101E5C00314A02FB03F27B681A6004E003E07B6802
:101E6C002D4A1A6000BF2B4B5B6803F0F0037B61BB
:101E7C007B691B097B612A4A7B6913441B78DBB2A3
:101E8C00BB607B681A68BB68DA407B685A60214B80
:101E9C005B6803F4E0637B617B691B0A7B61204A0E
:101EAC007B6913441B78DBB2BB607B685A68BB68E8
:101EBC00DA407B689A60174B5B6803F460537B6174
:101ECC007B69DB0A7B61164A7B6913441B78DBB2A6
:101EDC00BB607B685A68BB68DA407B68DA600D4B84
:101EEC005B6803F440437B617B699B0B7B610D4A10
:101EFC007B6913441B78DBB2BB607B68DA68BB6818
:101F0C00B2FBF3F27B681A611C37BD465DF8047BAB
:101F1C00704700BF0010024000127A0000093D001B
:101F2C00000000201000002080B483B000AF786067
:101F3C000B46FB70FB78002B06D0094B084A9169C5
:101F4C007A680A439A6106E0054B054A91697A68FA
:101F5C00D2430A409A610C37BD465DF8047B70474A
:101F6C000010024080B483B000AF78600B46FB7069
:101F7C00FB78002B06D0094B084AD1697A680A43D2
:101F8C00DA6106E0054B054AD1697A68D2430A400A
:101F9C00DA610C37BD465DF8047B704700100240D7
:101FAC0080B483B000AF0346FB71044BFA791A700E
:101FBC000C37BD465DF8047B704700BF071002402C
:101FCC0080B489B000AF786039600023FB610023D6
:101FDC003B610023BB610023FB6000237B6100237A
:101FEC00BB603B68DB7803F00F03FB613B68DB787D
:101FFC0003F01003002B04D03B689B78FA69134361
:10200C00FB613B681B88DBB2002B44D07B681B68F0
:10201C007B610023BB6138E0BB69012202FA03F348
:10202C00FB603B681B881A46FB6813403B613A69AE
:10203C00FB689A4226D1BB699B00FB60FB680F22B0
:10204C0002FA03F3BB60BB68DB437A6913407B6124
:10205C00FB68FA6902FA03F37A6913437B613B6804
:10206C00DB78282B05D1BB6901229A407B685A6129
:10207C0008E03B68DB78482B04D1BB6901229A400D
:10208C007B681A61BB690133BB61BB69072BC3D980
:10209C007B687A691A603B681B88FF2B46D97B6882
:1020AC005B687B610023BB613AE0BB6908330122AA
:1020BC0002FA03F3FB603B681B881A46FB6813406B
:1020CC003B613A69FB689A4227D1BB699B00FB6074
:1020DC00FB680F2202FA03F3BB60BB68DB437A692F
:1020EC0013407B61FB68FA6902FA03F37A691343C4
:1020FC007B613B68DB78282B05D1BB690833012257
:10210C009A407B685A613B68DB78482B05D1BB69E8
:10211C00083301229A407B681A61BB690133BB61A9
:10212C00BB69072BC1D97B687A695A602437BD46D5
:10213C005DF8047B704700BF80B483B000AF78605B
:10214C000B467B807A887B681A610C37BD465DF83C
:10215C00047B704780B483B000AF78600B467B8003
:10216C007A887B685A610C37BD465DF8047B7047F2
:10217C0080B487B000AF78600B46FB7000233B61E6
:10218C000023FB6000237B610023BB607B68002B7A
:10219C0003DA2E4BDB697B6102E02C4B5B687B61C5
:1021AC007B6803F470231B0CBB607B689BB23B61A8
:1021BC007B6803F44013B3F5401F0AD17B6923F00D
:1021CC0070637B61214B214A526822F070625A6025
:1021DC0021E07B6803F48013002B0ED0BB68032234
:1021EC0002FA03F3FB60FB68DB437A6913407B6103
:1021FC007B6943F070637B610DE07B685B0D1B01B9
:10220C003A6902FA03F3DB437A6913407B617B6919
:10221C0043F070637B61FB78002B08D07B685B0D0F
:10222C001B013A6902FA03F37A6913437B617B68F9
:10223C00002B03DA054B7A69DA6102E0034B7A6909
:10224C005A601C37BD465DF8047B704700000140A6
:10225C0080B483B000AF7860054A7B6843F0BF63FD
:10226C0043F40033D3600C37BD465DF8047B7047F4
:10227C0000ED00E080B487B000AF786000237B6194
:10228C0000233B610F23FB607B68DB78002B38D08D
:10229C00264BDB68DB4303F4E0631B0A7B617B6941
:1022AC00C3F104033B617B69FA6822FA03F3FB6018
:1022BC007B685B781A463B6902FA03F37B617B68A7
:1022CC009B781A46FB6813407A6913437B617B69E0
:1022DC001B017B6116497B681B787A69D2B20B446F
:1022EC0083F80023124B7A6812785209D2B27968BB
:1022FC00097801F01F01012000FA01F143F82210C6
:10230C000EE00B4B7A6812785209D2B279680978D0
:10231C0001F01F01012000FA01F1203243F82210D4
:10232C001C37BD465DF8047B704700BF00ED00E034
:10233C0000E100E080B483B000AF78607B68042BD0
:10234C0006D1094B084A126842F004021A6005E0F3
:10235C00054B054A126822F004021A600C37BD4680
:10236C005DF8047B704700BF10E000E070B50E4BC9
:10237C000E4D0024ED1AAD101E46AC4204D056F89A
:10238C00242090470134F8E700F016F8084D094B6B
:10239C000024ED1AAD101E46AC4204D056F8242091
:1023AC0090470134F8E770BDDC230008DC230008FB
:1023BC00E0230008DC230008F8B500BFF8BC08BC1B
:1023CC009E467047F8B500BFF8BC08BC9E467047E7
:0423DC0031010008C3
:0423E0000D010008E3
:1023E40000000000010203040102030406070809B7
:0423F40002040608D1
:04000005080002C12C
:00000001FF
